:100000000C942A000C9447000C9447000C94470071
:100010000C9447000C9447000C9447000C94470044
:100020000C9447000C9447000C9447000C94470034
:100030000C9447000C9447000C9447000C94470024
:100040000C9447000C9447000C9447000C94470014
:100050000C94470011241FBECFE5D8E0DEBFCDBF12
:1000600010E0A0E6B0E0E8EBF4E002C005900D92ED
:10007000AA3EB107D9F720E0AAEEB0E001C01D9278
:10008000AD3FB207E1F70E9463010C945A020C9451
:1000900000000F931F93CF93DF9300D000D01F92E7
:1000A000CDB7DEB7DC018B019E012F5F3F4F85E0AE
:1000B000F90111928A95E9F78AB381608ABB8BB303
:1000C0008E7F8BBB8FE39CE90197F1F700C00000A6
:1000D0008BB381608BBB90E59A95F1F78AB38E7FE5
:1000E0008ABBC89932C0C89BFECFC899FECF70E0CA
:1000F00023C0C89BFECFE0E5EA95F1F7C89B14C08A
:1001000047E050E0491B510921E030E002C0220FD6
:10011000331F4A95E2F7E1E0F0E0EC0FFD1FE70F37
:10012000F11D3081232B2083C899FECF9F5F01C032
:1001300090E09830F0F27F5F7530D0F38981F8015C
:1001400080838B818C9381E001C080E00F900F90C1
:100150000F900F900F90DF91CF911F910F91089505
:1001600084EA86BF06B607FEFDCF089584E986BF00
:10017000089583B984E886BF06B607FEFDCF0895CB
:100180000F931F93CF93DF93062F182F107F90E1CB
:10019000899FE00111240E94B0008EE40E94B90002
:1001A000D12FD02B8D2F8C600E94B9008FEC97E05F
:1001B0000197F1F700C000008D2F88600E94B90000
:1001C000C02B8C2F8C600E94B9008FEC97E00197B8
:1001D000F1F700C000008C2F88600E94B9000E94D7
:1001E000B6008FE99FE00197F1F700C00000DF91B2
:1001F000CF911F910F91089560E00E94C000089573
:1002000061E00E94C00008952FE788E391E021504B
:1002100080409040E1F700C0000083E30E94FC00B2
:1002200082E30E94FC0088E20E94FC008CE00E94B5
:10023000FC0086E00E94FC0081E00E94FC008FE050
:1002400097E20197F1F700C00000089581E00E9455
:10025000FC008FE99FE00197F1F700C000000895CE
:10026000CF93DF93EC0103C021960E9400018881A7
:100270008111FACFDF91CF910895811103C080E8F9
:10028000860F02C080EC860F0E94FC00089580E279
:1002900080B911B8089581B3806281BB81E88FBDB8
:1002A0008AE08EBD1BBC1ABC089510BC83E389B9DB
:1002B00088E18AB986E880BD08955F9B02C08CB151
:1002C000089580E008950E9447010E9404010E9461
:1002D0004B010E94550184B38C6084BB85B384605C
:1002E00085BB85B3877F85BB0E9426010E945D0187
:1002F0008093EB008111809360006AEE70E08CEED9
:1003000090E00E944900882309F48DC060E080E0FD
:100310000E943D0181E690E00E9430018091EC0056
:100320004AE06DEE70E090E00E9425028DEE90E0D4
:100330000E94300184E690E00E94300187E690E060
:100340000E943001809160000E94000186E790E0E9
:100350000E94300180916000803359F41BBC1ABCAC
:1003600060E081E00E943D018AE690E00E94300159
:1003700062C0813369F488E790E09BBD8ABD60E08C
:1003800081E00E943D018AE790E00E94300153C065
:10039000823369F484EB90E09BBD8ABD60E081E02C
:1003A0000E943D018AE890E00E94300144C08333FE
:1003B00069F48FEF90E09BBD8ABD60E081E00E9410
:1003C0003D018AE990E00E94300135C0813499F501
:1003D0008091EC00893158F41BBC1ABC60E081E0CC
:1003E0000E943D018AEA90E00E94300124C08332DD
:1003F00068F484EB90E09BBD8ABD60E081E00E94E0
:100400003D018AEB90E00E94300115C08FEF90E033
:100410009BBD8ABD60E081E00E943D018AEC90E0D6
:100420000E94300108C060E080E00E943D018AED3A
:1004300090E00E9430012FEF89E698E12150804042
:100440009040E1F700C0000051CFBB274A3031F4A3
:10045000992322F4BDE2909581959F4F0C9431022F
:10046000BB27FB015527AA27880F991FAA1FA4178E
:1004700010F0A41B83955051B9F7A05DAA3308F082
:10048000A95DA193009779F7B111B1931192CB01B6
:100490000C944A02DC01FC01672F71917723E1F78C
:1004A000329704C07C916D9370836291AE17BF0741
:0804B000C8F30895F894FFCF92
:1004B80041543D004320004D3D0046414E204F46EB
:1004C800462020202020202020004C4F5720535029
:1004D800454544202020202020004D4544205350ED
:1004E80045454420202020202000484947482053E3
:1004F800504545442020202020004155544F204F8E
:10050800464620202020202020004155544F204DD1
:10051800454420202020202020004155544F2048C9
:100528004947482020202020200053656E736F72B1
:0A053800204572726F72202020002F
:00000001FF
